:020000040000FA
:1008000000040020D5080000EF080000F1080000F7
:1008100000000000000000000000000000000000D8
:10082000000000000000000000000000F3080000CD
:100830000000000000000000F5080000F7080000BC
:10084000F9080000F908000000000000F9080000A5
:10085000F9080000F9080000F9080000F908000094
:100860000000000000000000000000000000000088
:10087000F9080000F9080000F9080000F908000074
:10088000DD1100000000000000000000000000007A
:10089000D50E0000ED0E0000F9080000F908000078
:1008A00000000000F908000000000000F908000046
:1008B0006D13000000000000F908000000000000B7
:1008C0000348854600F0D6FA004800477924000026
:1008D0000004002009480A4A002100A1814200D9F1
:1008E0000244084802600848804708480047FEE77D
:1008F000FEE7FEE7FEE7FEE7FEE70000000000205F
:100900000000000008ED00E065120000C1080000D2
:1009100030B50B46014600202022012409E00D4697
:10092000D5409D4205D31D469540491B254695401F
:1009300040191546521E002DF1DC30BD03460B4315
:100940009B0703D009E008C9121F08C0042AFAD285
:1009500003E00B780370401C491C521EF9D270470B
:10096000D2B201E00270401C491EFBD27047002247
:10097000F6E710B513460A4604461946FFF7F0FF9E
:10098000204610BDF8B502464A40D40F42004B0045
:1009900052085B089A4202D20246084611464A00B3
:1009A00023D0C30D4A00DDB2120EAD1A202D35DA68
:1009B00049020126490AF6058A19002C00D0524244
:1009C00020214F1B1146B9402A411018C20D9A42EE
:1009D00021D0002C17D0012D08DCDA05801AD20FA7
:1009E0008019D207DBB200F0ADF9F8BDDA05801A44
:1009F000012340001B06C01880185A428018CA0FF5
:100A00001043490007E04908C2071143DA05801A7C
:100A100080194008801800F08DF9F8BD61000122AE
:100A2000511A001BF7E70122D2075140AAE7012221
:100A3000D2075040A6E770B502464A40D50F4000A5
:100A40004A00ED0740085208002814D0002A12D0AE
:100A5000C40DD30D41020120C0055202490A520AB9
:100A6000E41A091812187D34914201D3641C00E085
:100A70004900002C01DA002070BD0023914201D30F
:100A8000891A0343400849000028F7D100290AD0F9
:100A9000914202D10121C90705E0914201D2012111
:100AA00001E00121C943E005C018401900F042F9F6
:100AB00070BD420005D04200120E52428A4201DB54
:100AC00000207047C905081870470000F0B50746B8
:100AD0000846584087B0C00F049048000E465900A1
:100AE00040084908BC1A884105D2384631461E469E
:100AF00017460B4602465800400810434CD0300DB4
:100B0000039040055900400D490D0590401A029090
:100B1000402872DA18030121000B090508430190EF
:100B200004980092002805D0019952420020884183
:100B300000920190029840210A1A0199009800F051
:100B4000C5F805460C466B4607CB00F0E0F8C01927
:100B50007141039A0E0D0023D71756401A467A406A
:100B6000164344D0049A002A2DD0029A012A039AEF
:100B700015DC1205C01A914101263605001C714191
:100B8000D20F059ED2070093019202962A46234671
:100B900000F01EF907B0F0BD38463146FAE71605F9
:100BA000224A0F46B218C01AB74101210905001C9C
:100BB0004F4100187F41114618187941E20F104348
:100BC0006D19644113E0E2076D0815436408C2071C
:100BD0001443039A01261205C01A91413605001CE0
:100BE0007141CE07400830434908C01851412A4698
:100BF000234600F0E0F8CDE7FFE70498012240002B
:100C0000C117121A00238B4104983146C417381AB1
:100C1000A141EEE730B40124E407634030BC55E75E
:100C200030B40124E407614030BC4FE70000E0FF2E
:100C300010B500229623114600F084F810BD410043
:100C400040020122400AD205090E80187F2901DAEC
:100C500000207047962903DC9622511AC84070473D
:100C600096398840704700004A0009030123090BA8
:100C70001B051943094B10B5520D9A4201DA0020A9
:100C800010BD064B34339A4203DC9A1A00F02EF85A
:100C900010BD03495118884010BD0000FF0300003B
:100CA000CDFBFFFFC20FD207400040080BD0C10DA3
:100CB0000723DB01C91840020905400A1143C20895
:100CC00040071143704700200146704710B5202AA5
:100CD00004DB0146203A9140002010BD91402023C2
:100CE0009C1A0346E3401943904010BD10B5202ADA
:100CF00004DB0846203AD040002110BD0B46D3400B
:100D0000D0402024A21A91400843194610BD10B5C6
:100D1000202A06DBCB170846203A1041C1170B43A7
:100D200006E00B461341D0402024A21A914008430C
:100D3000194610BD002904DA401C490001D14008C1
:100D40004000704770B40024050C05D11024000445
:100D500002D1002921D01124050E01D1000208344E
:100D6000050F01D10001241D850F01D18000A41CB5
:100D7000002801DB4000641C002908D020252E1B20
:100D80000D46F540A14000D001212943084301064A
:100D90001B1B000ADB1D02D5002070BC7047DB0561
:100DA000181880180029F8DA401C4900F5D170BCE9
:100DB00040084000704710B5002B08DA0024401CA2
:100DC000614192185B411A4301D14008400010BDB7
:100DD000F0B51FB482B005460C0003D0084600F001
:100DE00075FB02E000F072FB2030024600902146C5
:100DF0002846FFF76BFF049B059A04460F461843ED
:100E00001143084314D0184610431BD000984021CA
:100E10000A1A18460599FFF769FF05460E46009A1B
:100E200005990498FFF752FF084305D0012004E01C
:100E30002046394607B0F0BD0020C11705430E43D8
:100E40002C43374300990E986305401A7905E40A4C
:100E500000220C43FD0A0A3002D500200146E9E7D2
:100E60000105101969410C9C0D9D00196941FFF79E
:100E7000A2FFDFE7064C0125064E05E0E36807CC3C
:100E80002B430C3C98471034B442F7D3FFF71CFDBA
:100E9000D0400000F040000030B58C180278401CB3
:100EA00013071B0F01D10378401C120906D10278E9
:100EB000401C03E005780D70401C491C5B1EF9D1F5
:100EC00001E00B70491C521EFBD1A142E6D3002069
:100ED00030BD000000B50448C16949084900C1613E
:100EE00001F0A6FD00BD00000048014070B51E489D
:100EF000C16949084900C16100F096FB00F08EFE0F
:100F000002F0F4FA19491A4A0878401CC0B2087075
:100F100013885B1C13800025282803D9292008701A
:100F200014480570144C6089401C6081134E307861
:100F3000002812D012480178042000F031FD017819
:100F4000022903D92179491C2171057021790229CF
:100F500002D925710570357070BD0A48816940223B
:100F60001143816170BD0000004901400E01002065
:100F7000F60000201201002028000020EB000020D5
:100F8000EC000020400400487CB504460D460020DB
:100F9000C043694608800020124E08711AE020788C
:100FA000087101A90846641C00F042F969460879F5
:100FB0000988000248406946088000220888010428
:100FC00002D54000704000E040006946521C088095
:100FD000082AF3DB6D1EE2D2084600F00FF96846DE
:100FE00000887CBD05800000F0B5274F0021425CE1
:100FF0007A54491CC9B20B29F9D323480024017A39
:10100000C27908021043214A40BAD08138790123BD
:101010004006002801DA137300E014731C48FF2116
:1010200000889131884229D9B9788808C04380075F
:1010300025D00807800F22D09371B87A0426054680
:101040003540157210260546354055720225294057
:10105000D171D17A884201D0D07293720A490020AE
:101060000E313A1892780A54401CC0B20928F8D3BD
:1010700008688003810F074803D00470F0BD9471A5
:10108000DBE70370F0BD00007A0100204C00002077
:101090003C000020180100200CC90839002B0DD09D
:1010A000C3699343C3610A79D20602680B684DD5C0
:1010B0001A4302604A68112A04D00BE0C169114347
:1010C000C161704702690B681A430261C2680B680C
:1010D0009A43C2604A68122A07D1C2680B681A4351
:1010E000C26002690B689A430261426A0B689A43C4
:1010F0004262826A0B689A438262C26A0B689A43B0
:10110000C262026B0B689A4302638B6881229A4326
:1011100003D1426A0B681A4342628B6882229A4367
:1011200003D1826A0B681A4382628B6884229A43D5
:1011300003D1C26A0B681A43C2628B6888229A4341
:10114000BFD1026B09680A43026370479A43026089
:101150004A68202A4268096802D00A434260704700
:101160008A43FBE71A480168490849000160416861
:10117000490849004160C16949084900C161816964
:10118000C908C900491D81611248816B02221143BF
:10119000816311480169062291430161016920229E
:1011A0009143016101690F22D20191430722D201CB
:1011B000891801617D21C9000160002101628168F7
:1011C0000F221143816001690122114301617047BF
:1011D0000004004800000140000700400548816904
:1011E000C90706D0C16949084900C1610249098897
:1011F000016270470007004048000020FCB5002253
:101200006B461A800B8801250F26294691400B4218
:1012100007D069460C88B11A2F468F403C43694677
:101220000C80521C102AF0DB694609880180FCBD45
:10123000F8B500226B461A700B780125072629465F
:1012400091400B4207D069460C78B11A2F468F4067
:101250003C4369460C70521C082AF0DB6946097849
:101260000170F8BD13488169CA0A1349D2020B8B79
:101270005B055B0D1A438261026A498B920A9202F6
:101280008905890D0A43026281690F22D2029143C6
:1012900001229203891881610849016008494A685E
:1012A000D208D2004A600549491C4160816909049D
:1012B000FCD5704700000140A007100000005A5AFA
:1012C0000020024030B505460920C006816989B07A
:1012D00070229143103181611E4CA1691202914329
:1012E000012212038918A1611B498A6B80231A43CA
:1012F0008A63122106912021079106A9FFF7CCFEEF
:10130000082006901120079006A92046FFF7C4FE8A
:101310000020694600958880C8801049029169467E
:101320008881C8810882888203200D4C488220462B
:1013300000F05AF8A16804221143A16009488169AC
:1013400012021143816108480168020511430160DE
:1013500009B030BD000400480000014000366E01B5
:101360000044004000E400E000E100E030B51A4A2B
:101370002C201A4B5071D8690024400700280BDA42
:101380001470186A04218843186202F0EBF9144DB6
:1013900011796854491C117110795179884202D928
:1013A000147101209071D86980070ED5186A022146
:1013B000884318629078D178884207D2401C084947
:1013C000C0B290700F39085C986230BD05488169E1
:1013D00010221143816130BD0E0100200044004005
:1013E000CF01002040000048F8B505460C4688882B
:1013F0008989228A0843E18911430843618A0843A5
:101400002968304A114008432860E088A18A0843CF
:101410006968C3229200914308436860A0882A4EFD
:10142000002813D0C11FFF39FA390CD001218902DD
:10143000884220682ED18000FFF7FAFB0746A0689B
:10144000FFF7F6FB2FE02068C000F5E720680001F9
:10145000FFF7EEFB0746A068FFF7EAFB3946FFF708
:10146000EAFA0446FFF7EBFB87B23846FFF7E0FBEA
:101470002146FFF7DCFA0421FFF71BFBFFF712FC04
:1014800000223346FFF722FBFFF7EEFB80B2EF604E
:101490002861F8BDFFF7CCFB0746A068FFF7C8FB43
:1014A0000821FFF706FB3946FFF7C5FAFFF7FAFBFD
:1014B00000223346FFF70AFBFFF7D6FB80B2E86055
:1014C000F8BD0000C0F8FFFF0000E03F2021020C43
:1014D00001D010211046020A01D010460839020935
:1014E00001D01046091F820801D01046891E42080B
:1014F00001D0881E7047081A704730B47446641EC5
:101500002578641CAB4200D21D46635D5B00E31886
:1015100030BC184702E008C8121F08C1002AFAD1DF
:1015200070477047002001E001C1121F002AFBD163
:101530007047000070B535480069354C4206207888
:10154000344901260025002A19DA256162690A2A30
:1015500026D2521C62610A2A22D10A78002A02D1BC
:1015600002220A70227103281AD92570A560E0684A
:10157000002815D0FF2002F089F9E67010E02269FA
:10158000521C2261142A0BD9234AE570157025617B
:1015900065610D702179002902D0401C20702571F1
:1015A0001E480078002830D01D4800691D4A800779
:1015B00011D4A570E5616078401CC0B26070042849
:1015C00023D909206070A6615079802108435071A9
:1015D0001078084318E06570A078401CC1B2A17073
:1015E000A069002803D00420A561E06101E0304635
:1015F000E661814209D9401CA07050794006400E36
:10160000507110784006400E107070BD40000048C8
:101610006C000020B9000020E80000202800002015
:1016200040080048A4010020F8B5BF48C16BC907B5
:1016300074D00146086ABD4A80B293691818906157
:101640008B6B5B085B008B631189B94B491C89B2BA
:101650001181994275D900251581810BB54C916195
:101660002078022801D9012024E0012819D0AF4EAA
:10167000708841438C0A0A212046FFF749F9801CF3
:10168000F081AD48AD49007800900F78002815D062
:10169000AB49A0B2AB4A3182708290420CD3524225
:1016A00030E02570A14EA848FFF732F9708000F0B5
:1016B00047FB022020701AE175820BE0002F18D042
:1016C0009F49A0B29631A14A318270829042F3D3F1
:1016D000524217E0708A7D225043FFF719F9B0811A
:1016E00080B2642801D96420B081708900280CD0B0
:1016F0000FE019214901A0B2954A318270829042CF
:10170000DAD3524280187082E4E7012070810B2006
:1017100030700098002802D08E4807E0EEE0002FDD
:1017200002D08C48123001E08A48123870617F483C
:101730000246D1880778481C86B29088421C92B233
:1017400000E0D6E03B00FFF7D8FE0CE2C7B39F8A6B
:1017500075604536EBEB07EB7449CD808D804869A9
:101760004288A24201D2082003E08288A24202D22B
:1017700007200870BBE0C288A24201D20620F8E729
:101780000289A24201D20520F3E74289A24201D296
:101790000420EEE78289A24201D20320E9E7C28950
:1017A000A24201D20220E4E7008AA04201D2012035
:1017B000DFE70D709BE05D48858042695288A24258
:1017C00006D9032901D2C68091E0C58007210CE02B
:1017D000C5808CE0554B5B699F88A74207D9534869
:1017E00003298580EFD3C580062101707FE05B88E7
:1017F0004E49A34206D2CD80022801D28A8076E0EB
:101800008D80B0E7CD808D8071E0484B5B69DF88CB
:10181000A74206D9454803298580D4D3C580052130
:10182000E3E79B884149A342ECD2CD800228E5D36F
:101830008D809DE73D4B5B691F89A74206D93B48D8
:1018400003298580BFD3C5800421CEE7DB883749D3
:10185000A342D7D2CD800228D0D38D808EE7334BE0
:101860005B695F89A74206D9304803298580AAD3DE
:10187000C5800321B9E71B892C49A342C2D2CD8080
:101880000228BBD38D807EE7284B5B699F89A742E6
:1018900006D926480329858095D3C5800221A4E76F
:1018A0005B892249A342ADD20228A7D38D806FE77E
:1018B0001E4B5B69DF89A74206D91C480329858036
:1018C00081D3C580012190E79B891849A34299D211
:1018D000022893D38D8060E7144B5B691F8AA7426F
:1018E0000DD912480329858097D3C58005700F480C
:1018F00085610D488168012211438160F8BDDB8953
:101900000A49A34290D2022891D38D804AE7074921
:101910004B691B8AA34287D2022888D38D8046E771
:101920000B20024925E700000024014000000020B0
:10193000FF3F00001D000020540000205500002043
:10194000B60300008214000000C05D009C18000077
:1019500068100000824000000A480168012211431B
:101960000160C16B0906FCD5016865239B01194321
:101970000160416809090901091D4160816811433D
:10198000816070470024014001220449FF2802D0F1
:101990000871CA7070474A71FBE70000E800002038
:1019A000F0B5304EAA2902D0552903D005E02D49C3
:1019B000123101E02B491631F161317A2A4A402374
:1019C0000024002904D0012910D0022947D119E0B0
:1019D000906918439061308A4B21401C80B2C90045
:1019E000308288423BD93482012037E0D0691843E5
:1019F000D061308A401C80B230820A282FD93482CC
:101A000002202BE0F579F169B779495DF940C90702
:101A1000318A0AD0491C89B231820A290AD31E2987
:101A20000CD2D1691943D16111E0491C89B23182CC
:101A30001429F4D291691943916108E07F1CF9B22D
:101A40003482B171072902D9B4716D1CF571F17935
:101A5000814204D13482F471B471032030720148A0
:101A60000830F0BDE800002040040048F0B54048D0
:101A700040490068042344040A68002C01DBC405C3
:101A800001D51A4300E09A430A603B4A4405D37AE1
:101A90001025002C01DA2B4301E0EF242340D37200
:101AA00084020223002C0C6801DA1C4300E09C43F2
:101AB0000C60C30401D4C30203D52346012423438D
:101AC00001E063085B002D4E0B604703F37980242F
:101AD000002F01DA234301E05B065B0EF371264B16
:101AE0000601DB7901D4C60001D5234301E05B0682
:101AF0005B0ED3714601224B0022002E02DA012632
:101B00001E7000E01A7086040823002E0E6801DAA9
:101B10001E4300E09E430E600028334601DA2B434B
:101B200000E0AB430B6043000B6801D5234300E0AA
:101B3000A3430B6084002023002C0C6801DA1C43B3
:101B400000E09C430C60C4070E4B4020002C0DD0DD
:101B50000D4A1278002A02D01A7A002A03D00A68A5
:101B600002430A60F0BD0A688243FAE75A71FAE755
:101B700088010020B4000020A4010020940100206E
:101B800028010020280000201A01002001490862D5
:101B9000704700000007004002680B689A4207D1B6
:101BA00042684B689A4203D180688968884201D0B4
:101BB000012070470020704730B5104B024619785D
:101BC0000020082902D9022018700DE0002A0BD04D
:101BD000511C09D0012180248D005D59954209D105
:101BE000032903D2204305E0002030BD0009000195
:101BF0000843C0B2491C0929EED330BD2C01002096
:101C000030B50546C843C4B2284601F093FB2040D6
:101C10000146284601F02CFC30BD0000F8B52C49E7
:101C20000A692C4C042327461437A5691A403878D2
:101C3000AA4248D00A691A40A2610969490740D4FA
:101C40000025412809D0192807D37978052904D31C
:101C5000401AC6B23E70052E02D23D602571F8BD15
:101C6000F8781D4B1A5C5206120E1A548E4202D995
:101C700001210A431A543D70B978491CCAB215496A
:101C8000BA7009795F2A14D9185C884209D118788A
:101C9000082806D11048FFF7A7F901F0A3FF01209B
:101CA0006071A078002802D0A57000F0C9F83D60EE
:101CB000F8BD5207FCD11A5C4A402271401CF870F2
:101CC000F8BD7870F8BD4128FCD2401C3870F8BDD2
:101CD000400400484C0000206C01002010B586B084
:101CE00004460020694608750E2101A8FEF73FFE54
:101CF00012480221006800902D2001F0B9FB082154
:101D00000846FFF77DFF07210D2001F0B1FB05AB71
:101D1000012269460C2001F009FA002803D1694626
:101D2000097D102902D0012006B010BD694609784E
:101D30002170694649786170F6E70000A84000000C
:101D400038B53F256D01094C287CA07008486178A2
:101D5000008801220004084300907F2069460001AA
:101D600000F0A4F8287CA07038BD00001C00002002
:101D7000020000200649054A0A60552202700868E0
:101D80008006FCD40148801E0860704702005A5A41
:101D90000020024010B52549234888600020132305
:101DA000234A9B028100CC182468401C5450102800
:101DB000F8D31F4800232030417D012900D9437505
:101DC000017D012900D903751178082901D9022163
:101DD0001170817D09395B2901D313218175144864
:101DE00014492C3008603F204001134C017C617085
:101DF0001249408A088025214902002082008A5821
:101E0000521C02D0401C8028F8D3002806D0401E67
:101E10000006800DE0800858A06010BD012040023F
:101E2000E080A36010BD0000FF035A5A002002406A
:101E30002C010020E00000201C00002002000020F7
:101E400010B5104B10499868884219D8002802D163
:101E500001204002D880D8882524001D81B20B487B
:101E60006402D980814204D90020D8802046FFF73F
:101E700081FF0449D88801220831001900F016F8C2
:101E800010BD00001C00002098999900FF0100007F
:101E9000132300B59B021846FFF76CFF102202497E
:101EA000184600F003F800BD2C01002030B50B4CA3
:101EB000094B2360002308E09D004D59056025680B
:101EC000AD06FCD45B1C9BB2001D9342F4D30248C8
:101ED000401E206030BD000001005A5A0020024020
:101EE00070B50C4A00230DE0C55C14466C4025011A
:101EF0006540ECB22602E500120A724024096A40ED
:101F000062405B1C8B42EFD34254120A401842706D
:101F100070BD00006363000070B5244800210163B8
:101F2000016B722211430163416B0422114341632F
:101F3000416B8214114341631D4981601D4C802215
:101F40000521204600F03AF81B4D80220621284644
:101F500000F034F80926F60601220721304600F089
:101F60002DF800220621304600F028F880220421B6
:101F7000304600F023F884220021304600F01EF89D
:101F800000220221284600F019F884220421284664
:101F900000F014F884220521284600F00FF80022F2
:101FA0000121204600F00AF870BD00000000014049
:101FB00001005A5A000800480004004810B51406F1
:101FC00001238B400168002C12DA9943016051060D
:101FD000416801D5194300E099434160510703D599
:101FE000C16D1943C16505E0816D1943816501E04B
:101FF00019430160D106C16801D5194300E0994336
:10200000C1601107016901D5194300E099430161DD
:10201000D107C16901D0194300E09943C16110BDE6
:10202000F0B54100134F002010254037114E124AE1
:10203000012401E0082805D0CB0507D5FB692B4317
:10204000FB6106E033682B43336002E0BB692B433E
:10205000BB614904D369090C2343D36101F0FAFF42
:10206000936923439361401C0928E3D33068A84354
:102070003060F0BD000400484000004810B50B4837
:10208000C16910242143C16101F0E4FF0849CB6913
:1020900001221343CB6101F0DDFF83692343836198
:1020A00001F0D8FF88691043886110BD40040048E2
:1020B0004000004810B50948816910231943816127
:1020C00001F0C8FF0649CA6901242243CA6101F030
:1020D000C1FFC1691943C16110BD0000400400483F
:1020E00040000048F0B54100134F00202025403744
:1020F000114E124A012401E0082805D0CB0507D56E
:10210000FB692B43FB6106E033682B43336002E03D
:10211000BB692B43BB614904D369090C2343D361D9
:1021200001F098FF936923439361401C0928E3D38E
:102130003068A8433060F0BD00040048400000480B
:1021400010B50B48C16920242143C16101F082FF11
:102150000849CB6901221343CB6101F07BFF8369FE
:102160002343836101F076FF88691043886110BDC5
:10217000400400484000004810B509488169202308
:102180001943816101F066FF0649CA6901242243AF
:10219000CA6101F05FFFC1691943C16110BD000050
:1021A000400400484000004810B50549C8680028B0
:1021B00001D0401EC86000F061F8FFF7BBF910BD08
:1021C0006C000020F8B5284FBF21F8894843F97901
:1021D000000A002947D1552148436421FEF798FBA6
:1021E000798A081880B221497882844688423AD98F
:1021F0001F4D092228681023401C28600F20002151
:102200002C6826460640964208D98443E41800010B
:1022100012011B01491C2C600529F1D31548844289
:1022200000D92860388A0922401C38820F201023E8
:1022300000213C8A25460540954208D98443E4188C
:10224000000112011B01491C3C820329F1D30A48F9
:10225000A1B2814200D9388201200449B870604699
:10226000C94340187882F8BD4C0000200F270000B9
:10227000240000209999990099990000F0B53B48F5
:10228000007804281ED33A483A4D017800200029EE
:1022900014D039490978002910D0384F396980267F
:1022A0004B073749002B8A7A11DB6862AB6A022B35
:1022B00019D25B1CAB62022B05D014E02862A86225
:1022C000A8632863F0BD40231A4332430AE06B6AD7
:1022D0005B1C6B62012B06D9BF231A406862520651
:1022E000520EA8628A72274A126903249307244A6D
:1022F000002B127908DBA8636B6B5B1C6B63022BF2
:102300000CD932436C6308E0AB6B5B1CAB63686356
:10231000022B03D95206520EAC630A713A691A4E67
:10232000D307174A194FD27A0FD02B6B5B1C2B6344
:10233000E862022BC6D90C202C6330707D20C000CF
:102340003880DF200240CA72F0BDEB6A5B1CEB6292
:102350002863022BF8D920200243EC62CA720520C0
:102360003070FF202D303880F0BD0000E9000020E3
:10237000B90000206C000020280000204008004820
:10238000A401002040040048A800002048000020CC
:1023900070B5FFF7D5FE8420FFF7A4FE1220FFF7EB
:1023A000A1FE0220FFF79EFEFFF7CAFE8420FFF782
:1023B00099FE1220FFF796FE0320FFF793FEFFF72A
:1023C000BFFE8420FFF78EFE0020FFF78BFE284D16
:1023D0000024285DFFF786FE641C102CF9D3FFF75C
:1023E000AFFE8420FFF77EFE1020FFF77BFE214D1D
:1023F0002878FFF777FE6878FFF774FEFFF7BCFEDA
:10240000FFF73CFE8420FFF70BFE1220FFF708FECB
:102410000220FFF705FEFFF731FE8420FFF700FEE4
:102420001220FFF7FDFD0320FFF7FAFDFFF726FE60
:102430008420FFF7F5FD0020FFF7F2FD0C4E00248D
:102440001036305DFFF7ECFD641C102CF9D3FFF75C
:1024500015FE8420FFF7E4FD1020FFF7E1FD28784A
:10246000FFF7DEFD6878FFF7DBFDFFF723FE70BDA9
:1024700094010020A80000200120FD49C0028860CE
:10248000FFF74AFDFFF786FCFFF766FA01F0E8FD6B
:1024900001F04EFDFEF766FE4B20C001FEF712FF75
:1024A000F44DF54C0026F5484189C72970D90146FD
:1024B000888A401C80B28882FF219131884202D9EB
:1024C000EE48491C8182EE480178002908D0067048
:1024D000EC4801210170FF20EB492D30088003E01A
:1024E000E9480088002804D0E7490888401E088091
:1024F00001E0E4480670E5480078002874D0DF4F1A
:102500003878002802D001280CD10FE07D21E04866
:10251000C90001807878002802D00128F4D102E0B7
:1025200001F08CFB22E201F045FC1FE2FFF79EFA6E
:10253000D8480078002808D0D7490978002904D065
:10254000D64BB022196891431960BA8AFF219131A4
:102550008A4202D9D249097801E0D2490988B98171
:10256000002805D088B2192827D91920B88124E07D
:10257000CD4800688003800F012804D0022808D0CD
:1025800003280BD00FE088B232280CD9322009E0A2
:10259000F9E188B23C2806D93C2003E088B24628FD
:1025A00001D94620B881BC480078002805D0BC4835
:1025B0000178192901D919210170B88901F038FA77
:1025C000BA480078002810D020797322C009C001D1
:1025D00020716079C009C0016071E079A271C00901
:1025E000C0011043E07106E0A6E101F0C1F8A07956
:1025F00080210843A071B889002810D1A74800683D
:10260000C1070CD141070AD4010708D4800706D4BA
:10261000E0783F210843E070FF20207204E0E0787A
:1026200080098001E0702672A1480078002801D05E
:1026300001F03AF99F480078002805D09E4840787C
:10264000401CC0B201F048F992480078002829D017
:1026500091480078002825D0207BC009C001207354
:1026600066738648FF27808A9237B84223D2934800
:1026700064210088484380B27D21FEF749F97F49F3
:10268000C8820A21FEF744F900297C4900D0401C89
:10269000C8827A48807D00F007FF7848807801285A
:1026A0000CD018E0FF2060737F4800688003800F23
:1026B00001F030F9D5E782480078ECE76F487149BE
:1026C00086700978002906D0818AFF2091308142E6
:1026D00001D9FFF777FD6948C0780028287979D0BB
:1026E000BF21084028716548C069142825D2634875
:1026F000808AB8420BD273480A21007848430021EF
:1027000001F0BEF96F4801785C48417254E06E48B0
:102710000078002803D000214B20C0000AE06B485D
:102720000078002803D000212D20000102E0FF20C6
:102730000021E13001F0A4F93EE0E87A802318435B
:10274000E872604801784D48427A914203D160496D
:102750000978002903D05E490E70C66101E0152199
:10276000C161C189002911D06A7A491E1A436A726F
:10277000C181A87A0A214006400EA8725548006817
:10278000FEF7C6F8002101F0D3F815E0A97A194345
:10279000A972808AB84203D24F480121008805E01F
:1027A0004E480A210088FEF7B3F8012101F0C0F875
:1027B000687A4006400E68723048808AB8422879AC
:1027C00009D22021084328713C480121007801F0FA
:1027D000CBF947E00EE0DF21084028710020687047
:1027E0002870E878C009C001E870A878C009C00165
:1027F000A87037E09F2108402871A87A4006400E53
:10280000A8721E48808AB8420FD201F0F9FB1B481B
:10281000C089002822D132480121008801F030F916
:10282000A87A4006400EA87214E02E4801210088C4
:1028300001F026F96878C009C00168702878C009DD
:10284000C0012870E878C009C001E870A878C00904
:10285000C001A8700948C089002845D0E87A8021C5
:102860000843E87216480078002841D046E000008E
:1028700000ED00E094010020A401002028000020C9
:10288000510000206A00002068000020B9000020EC
:10289000480000205200002018010020B400002051
:1028A0004C00002026010020880100205300002059
:1028B000280100206F0000202C0100201E010020B4
:1028C00000000020190100205400002055000020C5
:1028D0005600002024000020220100205C0000207F
:1028E000240100200E000020E87A4006400EB8E7E0
:1028F0002848FF21828A91318A4219D826480088C7
:10290000052811D307E0697B802001436973297989
:10291000014329712AE028794006400E2871687B1E
:102920004006400E687321E01A48818AB942F2D20B
:10293000007A0028EFD0E6E7194918480E80068093
:1029400014481849067046700E70FF216931C18124
:10295000154900200E54401CC0B20428FAD30020B0
:102960002E542654401CC0B21028F9D301F002FBAB
:1029700000F0ACFA0B4800786070FFF709FDFFF734
:1029800013FC0448468105480088FFF7FFF800F073
:10299000AFFD88E5280000201E010020480000202F
:1029A0005C000020B40000208801002070B5124DAA
:1029B0000020A8700721E970104C06212170102614
:1029C0006670B121A170E070207112206071062143
:1029D0002046FEF7D9FA010AE171A0710848816822
:1029E0000222114381600749CA693243CA61A9784A
:1029F000615C816270BD00000E010020C0010020FA
:102A00000044004040000048074841694908490027
:102A100041610169490849000161002141600348A1
:102A20000160001D0160704700480140C0000020A7
:102A3000F0B5FF20FB492D30C880084607780021FB
:102A40000525F9480122102404263B00FEF755FD18
:102A50000EB4085B85BEF8F5F4F3F2F1F0EFEEB4D6
:102A6000F04E0C363378331F5C78002C74D13478F8
:102A7000002C09D01878002804D01878401E18704F
:102A800012202DE03170F0BD7478002C2AD0E54C76
:102A900067888E2F0AD25D706188491C61806188C9
:102AA00030225143016060886080F0BD7170997878
:102AB000002908D09878401E9870D8781870122095
:102AC00058703270F0BDB178002975D002212170A4
:102AD0001B21C901016048206080092098702BE00B
:102AE0005870F0BDCF494C88532C0AD95D704A8884
:102AF000521E4A804A8830235A43026048884880E0
:102B0000F0BD7270F0BDC74B08335A78002AADD1C2
:102B1000C44A5588D52D04D2082159705188491CC2
:102B200060E09D78002D09D09978491E99701B218D
:102B3000C9010160482050800820D1E703261670A3
:102B4000E1252D0105604B2050809E70CA20187031
:102B50005C70B4480C3021E171E0B24B08335D7811
:102B6000002D6CD11D1D6F78002F07D01A78002A18
:102B700011D01878401E18705C70F0BD19780029CB
:102B8000F7D1AA490160A749AB20488054201870AA
:102B90005C706A70F0BD9A78002A0ED09A78521E46
:102BA0009A70E122120102609E4A4B205080CA2096
:102BB00018705C706970F0BDD4E09A490E709C4A40
:102BC0000260E3204880032098701DE0954B083395
:102BD0005A78002A33D1934A54884D2C0AD90F21B0
:102BE000597085E0518051883023594301605088E5
:102BF0005080E0E79C78002C08D09978491E9970A5
:102C00008B490160E32050800F2069E7157057243D
:102C1000640104603A2050800E2058707E201870A5
:102C2000032098707F480C300170C4E710E1EBE09E
:102C3000CAE0B5E0A6E085E06DE04CE000E04FE0E2
:102C4000784C0C342378231F5D78002D48D12778E9
:102C5000784D002F0FD01A78002A09D0BD2212011A
:102C600002603F206F4A50800F2058702170A2E709
:102C70000560CE20F6E71F78012F03D91E78761E57
:102C80001E7006E0197800290AD01978491E1970BB
:102C9000E121597005606349CE20488022708AE79F
:102CA000997800290DD0BD21090101605D493F20BF
:102CB00048809878401E98700F2058707E201870B9
:102CC00079E7584906220A705B4A0260C6204880AC
:102CD0000920987019E0534B08335A78002A02D023
:102CE0005878401EFCE64F4A5488442C03D95E7045
:102CF0005188491E76E79C78002C08D09978491EA7
:102D000099704D490160C62050805E7053E7454878
:102D10000C308170ABE0434908314A78002A70D109
:102D2000404A53884524E400A3421CD053881C46E3
:102D3000FF3CF53C16D1A7234B7040490160FF20B2
:102D4000C53055E7374908314A78002A59D1354A04
:102D500053881C46FF3CC53C05D053881C46FF3CAD
:102D6000F53C07D083E096234B7035490160FF2086
:102D7000F5303DE788234B70CF21C9010160452024
:102D8000C00035E7274808304178002964D1017830
:102D900000296CD00178491E0170FF2141700AE7BB
:102DA000204B0C331878181F4478002C54D11C7811
:102DB000002C49D019705021F0E78178491E8170AC
:102DC000642141701A70F6E6164908314A78002AE3
:102DD00003D04A780A2A0FD013E0124A5378002B06
:102DE00045D09388002B42D0E1231B0103604B2088
:102DF000508014204870DEE6124A0260094A7D20A5
:102E000050804878401EF5E7064B0C331878181FA1
:102E10004478002C20D11C78002C15D019709621F4
:102E2000BCE70000B800002000480140102000006E
:102E3000902A0000A026000020250000C0540000B9
:102E4000C05D000070170000817800290FD0B4E742
:102E500008484178002902D04178491E9EE78178D0
:102E6000002904D08178491E8170C82196E7FFF7B8
:102E7000CBFDA0E6C000002030B5124C124D00285A
:102E80000BD0802202212046FFF798F880220021F3
:102E90002046FFF793F884220FE00022022120460B
:102EA000FFF78CF8002201212046FFF787F8002267
:102EB00011462046FFF782F8002201212846FFF73D
:102EC0007DF830BD0008004800040048F0B57A4C99
:102ED00087B06078794E401CC1B26170607A00287A
:102EE00015D001281BD00027022827D006280CD196
:102EF000B06920221043B06109297DD967706772DB
:102F00002078002801D0401E207007B0F0BD0120BD
:102F1000FFF7B2FFF16920200143F16108E0A07AD8
:102F2000002803D166480078022804D200F032FA63
:102F3000607A401C00E006206072E6E706A8FEF713
:102F4000CDFE002804D1684600F082F9002805D0A3
:102F5000A07A002826D0401EA07223E0A07A002884
:102F600027D00520A072E07A64281BD2401CC0B292
:102F7000E072642802D01E280AD013E0514800787D
:102F800000280FD0207B01280CD100F07FFC09E045
:102F90004C480078002805D14B480178542906D0C8
:102FA00054210170B06920210843B061C3E7532167
:102FB000F7E7684600F02CFC0028F3D14348009D59
:102FC0003D496840203108602078002837D04048CB
:102FD000807801281DD06A46082000F07DF800287E
:102FE000E0D13C49082000F0F7F90028DAD1384850
:102FF0004178FF2920D000E056E0FF214170856034
:10300000FEF746FF0520A0723220E072C820207033
:10301000C8E72F490878082801D2401C00E00320A7
:1030200008700006800D0D50FEF732FF0520A072DB
:103030003220E0722770B5E747704560E0E7284628
:10304000FEF7BAFD00282DD00006022500280DDA73
:1030500019496A462031082000F03EF8002805D1C1
:1030600002A9082000F034F900280CD02573154877
:103070000078002814D05520FEF786FC0320A072AB
:103080006773E7728EE7B06920210843B061114988
:1030900002A8FEF781FD002888D101202073E6E711
:1030A000AA20E9E727737DE7042900D02DE7002057
:1030B000FFF7E2FE29E70000E80000204008004892
:1030C0004C000020B90000206B000020785634121C
:1030D0002C010020B4010020F0B587B00D46074652
:1030E00000206946087514460E216E4601A8FDF7BA
:1030F0003EFC0D486946806800904F700023E95CF3
:10310000F0188170E15C5B1C0172062BF7D30A2179
:103110002D2000F0ADF905AB0C2269460E2000F021
:1031200005F807B0F0BD0000A8400000FFB500257D
:10313000009801262F460C2804D00E2804D1122511
:10314000112701E0772531272946802001430220FD
:1031500000F08EF980210420FEF752FD00210120AD
:1031600000F086F980210A2000F084FB002405E0AD
:103170000198015D092000F07BF9641C02988442EB
:10318000F6D30120009900F073F900980C2803D1C0
:1031900080210D2000F06EFB2C480021C18104200D
:1031A00000F0C8F80446384203D12848C089962860
:1031B000F5D3F7210D20FEF723FD2448C08996287A
:1031C00038D2062000F0B6F81B21084209D1009839
:1031D0000C2817D0082000F0ADF8000704D5002611
:1031E00002E0000700D502260A2000F0A3F80546F9
:1031F0000C2000F09FF84007400F07D0E900083985
:10320000081804E02C40E007E9D0EDE7E800039956
:10321000122D087001D9122502E0002D00D10125E0
:10322000002405E0092000F085F801990855641C88
:10323000AC42F7D380210C2000F01CFB00210120C0
:1032400000F016F9304604B0F0BD0000E8000020A0
:10325000F0B587B005460027684607750E216E4613
:1032600001A8FDF784FB18480A21406800902D2032
:1032700000F0FEF808210846FEF7C2FC00210D20F0
:1032800000F0F6F880210E20FEF7BAFC05AB022212
:1032900069460C20FFF74AFF04000CD10146725C1E
:1032A0006A54725C491C50400429F8D36946097974
:1032B000814200D001240548802187700E2000F053
:1032C000D9FA204607B0F0BDA8400000E800002071
:1032D00070B586B00C4606460020694608750E217A
:1032E0006D4601A8FDF743FB11486946C068009090
:1032F0004E700A212D2000F0BBF802216846FEF72F
:10330000EFFD05AB042269460C20FFF70FFF0028F4
:1033100004D16946097D902902D0012006B070BD14
:103320000022A95CA154521C102AFAD3F6E700002F
:10333000A8400000F0B5154EB16902273943B161CC
:103340004000802108430024C0B200F05BFC10491B
:10335000C86904252843C8610020012263061C0EA9
:10336000CB691343CB610B699B0700D514438B6971
:1033700013438B61401C0828F0D388692843886177
:10338000F0693843F0612046F0BD00004004004879
:103390004008004800B50F21012000F069F8102115
:1033A0000B2000F065F810210C2000F063FA0021DA
:1033B0002C2000F05DF88D212A2000F059F83E21E4
:1033C0002B2000F055F84021152000F051F8032182
:1033D000142000F04FFA00BD70B586B00C460646CA
:1033E0000020694608750E216D4601A8FDF7BFFA59
:1033F0001E486946006900904E701E212D2000F085
:1034000037F802216846FEF76BFD05AB04226946DA
:103410000C20FFF78BFE002826D16846007D04288B
:1034200021D1684600780007000F0A281BD100222E
:10343000A05CA854521C102AFAD310216846FEF74B
:103440004FFD05AB122269460C20FFF76FFE0028E6
:103450000AD16946097D042905D169460978090719
:10346000090F0A2900D0012006B070BDA840000055
:1034700070B50B4C0E46A16902252943A161800657
:10348000400E00F0BFFB304600F0BCFB05488169F0
:10349000042211438161E0692843E06170BD0000AE
:1034A000400400484008004830B50F4C9F22617B23
:1034B0004023114001221943A2736173002811D0E7
:1034C000082803D12020014361730720002106E072
:1034D0001546491CA37B8D402B43A373C9B281427F
:1034E000F6D330BDA27330BD9401002070470000B8
:1034F000F8B58C4FB879002876D000258A48BD7180
:1035000005802B218948FDF73FFD884BF88119780C
:10351000062969D15978102966D19978B12963D1E2
:10352000D978002960D1997924295DD119462331B0
:103530004A7A0C7A11022143814255D1187A7D4C86
:1035400082077B49226801D50A4300E08A4341068D
:1035500001262260002902DA1146314301E05108B8
:1035600049002160C0077449206801D0084300E089
:1035700088432060587A7149C207226801D00A4303
:1035800000E08A432260400701D53E7300E03D73AE
:10359000997A6B480A0601D5067000E00570987F9D
:1035A000020784466748226801D5024300E082434F
:1035B0005E482260407F644BC207226801D01A43F4
:1035C00000E09A4322606246530902D143079B0FF1
:1035D0000BD05E4A042312681A435C4B1A60FF2327
:1035E000226801331A430AE094E0584A136804221F
:1035F0009343564A1360FF23226801339A432260A3
:10360000C006534A206801D5104300E09043206073
:103610004648032320304278FA7182783A72226851
:103620001B049A438B069B0F1B041A4322609203D0
:10363000920F33D0BD72427A4648022A30D00670CB
:103640000807000F78723948807E38823748C01CDE
:103650000090417D027D0802104340BAF882334851
:10366000817B427B0802104340BA0A21FDF750F9E2
:1036700038830098417B027B0802104340BA0A213C
:10368000FDF746F92949B882097B334A334BF97271
:103690003C2907D0157048290DD004E0BE72CAE756
:1036A0000570CDE716701D70798A814212D0797845
:1036B000002902D003E01E70F6E77E707882798AD6
:1036C000884205D9264801680A310160FEF7B8FB37
:1036D000B88A78820122787A52075100002804D0F3
:1036E000012808D002280CD115E02068904301225F
:1036F000D207104303E0206810434000400888438D
:1037000020600A4900200D54401CC0B23028FAD372
:10371000FFF74CF9F8BD206890434000400808438B
:10372000EEE700000E0100203C000020CF01002049
:1037300000040000880100200000000100000004D7
:10374000530000200010000000200000B400002002
:1037500000002000520000205400002055000020EE
:10376000240000200148406AC0B270470044004075
:10377000FEB52448244A01789079244C431C2679CC
:10378000DFB273095B010193657B6B095B010093F9
:1037900000291CD0104619218069FDF7B9F80029CD
:1037A00001D11948877118498879052805D9002061
:1037B00088710198207100981EE0002806D0012130
:1037C000401E81400E4326710D436573FEBD0028E7
:1037D00014D00121401E81400E430D43F0B22071F0
:1037E000E9B261739771052FF0D9002340099371F5
:1037F00040012071480940016073FEBD01982071AD
:103800006373FEBD4C0000202800002094010020BE
:1038100010B586B004460020694608751422144984
:103820006846FDF78BF800216A46605C5318987073
:103830009079635C491C584090710429F5D30A21A2
:103840002D20FFF715FE07216846FEF749FB0821EA
:103850000846FEF7D5F905AB092269460C20FFF7AB
:1038600065FC6946097D182900D0012006B010BD0D
:10387000BC40000030B50C460546FFF75BFD204319
:1038800001462846FFF7F4FD30BD00000449012839
:1038900001D9C82200E064220A700249887070478A
:1038A000E80000202C0100200A4877230179C9098B
:1038B000C90101714179C909C90141718179CA09F7
:1038C000D201C1791A43C909C90182711943C17171
:1038D00070470000A401002070B50C490C4E0A7915
:1038E000305CD4094A79E401D3098A79DB01D5092E
:1038F000ED01CA790543D209D201024338208D7106
:103900000343CA714B7104430C7170BDA4010020C4
:10391000AA000020044A054B117B185CC909C901A3
:103920000143117370470000A4010020AA00002089
:10393000F3B589B00E460A210998FCF7E9FF0A2180
:10394000FCF7E6FF059164210998FCF7E1FF0A21E5
:10395000FCF7DEFF01917D21C9000998FCF7D8FF33
:103960000A21FCF7D5FF03912E490998FCF7D0FFF7
:103970000A21FCF7CDFF2C4C0D46E0792B4FC009F6
:10398000C001E0710790207A0A21C009C0012072AD
:103990000290607AC009C00160720090A07AC009EC
:1039A000C001A0720490E07AC009C001E0720690E4
:1039B0000998FCF7ADFF785C012E0ED07A5D07996F
:1039C0001143E171039A0299BA5C11432172019A81
:1039D0000099BA5C114361721AE0002D03D07A5D40
:1039E00007991143E1717D220999D200914204D3D4
:1039F000039A0299BA5C114321720999642904D38C
:103A0000019A0099BA5C1143617209990A2904D399
:103A1000059A0499BA5C1143A17206990143E172B7
:103A20000BB0F0BD1027000094010020AA00002078
:103A3000F8B50A21FCF76CFF0C460A21FCF768FF79
:103A40000D480A46254601790C4ECC094179755D31
:103A5000CB098179E401CF09FF01C179DB01C909F3
:103A6000C9012F4387712943C171B15C0B43437175
:103A70000C430471F8BD0000A4010020AA0000203E
:103A8000F3B585B00E460A210598FCF741FF25489D
:103A90000391C17A244FC909C901C1720491817A85
:103AA000C909C90181720291417ACC09E4014472C9
:103AB000C179C909C901C1710091017ACD09ED012E
:103AC000057264210598FCF723FF0A21FCF720FF0B
:103AD000785C01900A210598FCF71AFF0A21FCF78F
:103AE00017FF795C0F48012E08D0019A0C4315434B
:103AF000057244723E21817207B0F0BD049A3E23E4
:103B00001A43C272039B029AFB5C1A438272082218
:103B100014434472019B009A1A43C2710D4305720B
:103B2000EAE7000094010020AA00002070B50A21F5
:103B3000FCF7EEFE0C460A21FCF7EAFE08480A46AE
:103B4000C1782346CC09074DE401AA5C817814436F
:103B5000C470C909EA5CC9011143817070BD0000DD
:103B600094010020AA000020F3B583B00E460A217C
:103B70000398FCF7CDFE0A21FCF7CAFE174C019111
:103B8000E078174FC009C001E070A0780A21C00991
:103B9000C001A07002906078C009C0016070009000
:103BA0002078C509ED0125700398FCF7B1FE785C1B
:103BB000002E0DD0039909290AD8054325700398D2
:103BC000632803D9797802980843A07005B0F0BD46
:103BD000019A0099BA5C11436170EEE794010020EC
:103BE000AA0000200549BF22C8895043044A000AA0
:103BF0005043C00B08704870704700004C00002014
:103C00003709000030B5002104240B4A01250306C2
:103C100003D5D3692343D36102E0936923439361BE
:103C2000D3692B43D36193692B4393614006000E04
:103C3000491C0829EBD330BD40080048F8B5594865
:103C4000C16901242143C1615748584A438A00256C
:103C5000008A002B09D0544E20275549012B23D030
:103C6000022B4FD0032B70D077E0042808D2D17BF1
:103C70000823C3401943102383401943D1736CE0D8
:103C80005679011F8023CB401E435671167B234675
:103C90008B401E43167309285FD2107918431071A8
:103CA000507B1843507358E0082807D28B78802245
:103CB000C24013438B704B7A13434B720246083A4F
:103CC000022A08D2CB7A0226D6403343164608226F
:103CD000F2401343CB7202460A3A062A03D2CB784B
:103CE000D7403B43CB70102807D00A2835D3087A39
:103CF00023469340184308722FE0087A8023184324
:103D00000872F4E707280BD20B784026C6403343ED
:103D10000B70062804D28E7A3B46C3401E438E7237
:103D2000002806D19679C0231E4396718E7B1E43D0
:103D30008E73401E062810D29379C7403B4393717F
:103D4000887B3843887308E0FFE7487BFF221043F5
:103D5000487375823582F5617470134E0521B06920
:103D6000FCF7D6FD002902D1308A401C3082708ACF
:103D700000280AD001280ED0022805D1308A062852
:103D800002D9358203207082F8BD308A0B28FBD916
:103D900035827482F8BD308A1028FBD93582022022
:103DA000F1E70000400400482800002094010020B2
:103DB000A4010020F0B5594D574887B0C469AE78CA
:103DC000EF782978059169780491E9790391297947
:103DD0000291E97A01915248697A00914179C27A57
:103DE0008E460178C3788C46817A0A2C4BD2802487
:103DF0002643AE702743EF70059E202726432E7082
:103E0000049E26436E70039E2643EE71029E3E433F
:103E100040273E4326432E71019E39432643EE72CE
:103E2000AE7A21432643AE72009E3B4326436E7218
:103E30008679264386717646264346716646264332
:103E4000067006792643067130263243C2728172AB
:103E5000C3703449FF2008705820FFF7E9FD08209F
:103E6000FFF758FD00213048FFF762FD0820FFF7FB
:103E70001BFB0121BC20FFF777FE5820FFF756FE01
:103E8000687B204344E07406640EAC707C06640ECC
:103E9000EC70039C76466406640EEC71029C760618
:103EA000BF27760E4671664676063940760E49067D
:103EB0000670490E8172EF210A40C2723B40C37006
:103EC00005983C404006400E287004986406400661
:103ED000400E68700198640E4006400EE87200982B
:103EE00001214006400E68720B486209C170520100
:103EF0002A716A7B520952016A7301700B480A21C8
:103F0000007848430021FFF7BBFD687B4006400E68
:103F1000687307B0F0BD0000280000209401002065
:103F2000A4010020B4000020385B0100190100202A
:103F30000C48002101610C4801614B21090101601D
:103F4000426901210A43426102690A430261032076
:103F5000064980034861064801680322120511439F
:103F600001607047004801400049014000E400E062
:103F700000E100E070B5204C2421A069401C0646F9
:103F8000A061FCF7C5FC0125002900D1A5701B48E4
:103F90000078002809D00E213046FCF7B9FC002932
:103FA00007D1E069401CE06103E00020E06120826D
:103FB0006082FF21E1313046FCF7AAFC002903D1E1
:103FC000E078002807D0E1700C213046FCF7A0FC17
:103FD000002902D002E00121F5E7E5713C213046DD
:103FE000FCF796FC002904D1207A002802D000209A
:103FF000207270BD0120FBE728000020B9000020DE
:1040000010B5114C00216078C009C00160702078A3
:10401000C009C0012070E078C009C001E070A0783C
:10402000C009C001A07009480078FFF79DFD08484D
:104030000078FFF77BFD20784006400E2070607806
:104040004006400E607010BD940100201601002053
:104050001501002000BF00BF00BF00BF00BF7047B8
:104060000248816B20229143816370470000014028
:10407000881396123212CE119C1160112411E8108F
:1040800068103818C1174A17D3165D16E61569155A
:10409000F8148214E81C5E1CD51B4B1BC21A381A7C
:1040A000AF1989199C180000260000009320000019
:1040B0006000000030000000A000000093700000CD
:1040C00000000000000000000000000000000000F0
:1040D000F0400000000000202C010000980E0000BD
:1040E000244100002C010020D4020000241500000F
:1040F0000214638370400219FF0341680133B80B57
:10410000022C14BD0F0F3F065B4F666D7D077F6F5E
:10411000033B2C01B986AA002C865500D3031FFF50
:04412000FF0000009C
:04000005000008C12E
:00000001FF
